:100000000C9424010C9441010C9441010C94410185
:100010000C9441010C9441010C9441010C94410158
:100020000C9441010C9441010C9441010C94410148
:100030000C9441010C9441010C9441010C94410138
:100040000C9441010C9441010C9441010C94410128
:100050000C9441010C9441010C9441010C94410118
:100060000C9441010C944101000000000000005F6D
:1000700000000007000700147F147F14242A7F2A41
:10008000122313086462364955225000050300000C
:10009000001C2241000041221C0014083E081408E4
:1000A000083E0808005030000008080808080060F2
:1000B00060000020100804023E5149453E00427F86
:1000C000400042615149462141454B311814127F8D
:1000D0001027454545393C4A494930017109050316
:1000E0003649494936064949291E0036360000007E
:1000F0005636000008142241001414141414004150
:100100002214080201510906324979413E7E11113B
:10011000117E7F494949363E414141227F4141227A
:100120001C7F494949417F090909013E4149497AF2
:100130007F0808087F00417F41002040413F017F48
:10014000081422417F404040407F020C027F7F0420
:1001500008107F3E4141413E7F090909063E415159
:10016000215E7F09192946464949493101017F012C
:10017000013F4040403F1F2040201F3F4038403F4C
:100180006314081463070870080761514945430068
:100190007F41410002040810200041417F00040219
:1001A0000102044040404040000102040020545439
:1001B00054787F48444438384444442038444448C0
:1001C0007F3854545418087E0901020C5252523E92
:1001D0007F0804047800447D40002040443D007FB7
:1001E0001028440000417F40007C041804787C08FB
:1001F00004047838444444387C1414140808141453
:10020000187C7C080404084854545420043F44409B
:10021000203C4040207C1C2040201C3C4030403C86
:1002200044281028440C5050503C4464544C440022
:100230000836410000007F00000041360800100829
:10024000081008000000000011241FBECFEFD8E006
:10025000DEBFCDBF11E0A0E0B1E0E6E4F8E002C00F
:1002600005900D92AA33B107D9F723E0AAE3B1E0D4
:1002700001C01D92A937B207E1F70E94DA030C947E
:1002800021040C9400000E94CF0268E08FE00E94DD
:10029000C00361E08FE091E00E94B0036CE180E078
:1002A0000E94C00361E089E191E00E94B0030E94D6
:1002B000C5032FEF83ED90E3215080409040E1F79C
:1002C00000C000001E9BFECF0E94E001FBCFCF9339
:1002D000DF93EC011C161D061CF0DF91CF910895F1
:1002E00063E28C2F0E94C00361E088E291E00E94EB
:1002F000B0030E94C5038FE39CE90197F1F700C0AA
:100300000000CE01189B04C0DF91CF910C948F01A7
:100310000597079710F40E9443012197DBCF0F93B5
:100320001F93CF93DF93EC0162E288E00E94C00349
:1003300061E08AE291E00E94B0030E94C5036CE193
:1003400088E00E94C00361E08CE291E00E94B0036B
:100350000E94C5031C2F0C2F0C5010131EC06CE103
:1003600088E00E94C00361E08AE291E00E94B0034D
:100370000E94C50362E288E00E94C00361E08CE253
:1003800091E00E94B0030E94C503CE010C97DF915B
:10039000CF911F910F910C94670163E2812F0E940E
:1003A000C00361E088E291E00E94B0030E94C503AF
:1003B0008FE39CE90197F1F700C000001150CDCF09
:1003C0000E94CF026CE08EE00E94C00362E082E2F5
:1003D00091E00E94B0030E94C5032FEF83ED90E3EC
:1003E000215080409040E1F700C000000E94CF0201
:1003F000D0E0C0E0D12CC12C60E084E20E94C003B8
:1004000061E08EE291E00E94B00360E088E40E9427
:10041000C00361E080E38C0D0E94080360E08EE47D
:100420000E94C00361E08C2F805D0E9408030E943F
:10043000C50362E288E00E94C00361E08CE291E0C3
:100440000E94B0030E94C50303E510E041E06AE2A8
:10045000802F0E94EB020E94C5030130110579F53F
:1004600080E5E82EF12C0AC01E990E9443012BE082
:10047000E216F104D1F381E0E81AF10863E28E2D6F
:100480000E94C00361E088E291E00E94B0030E94F4
:10049000C5038FE39CE90197F1F700C00000189BAA
:1004A000E3CFC7010E948F0163E281E00E94C00395
:1004B00061E08AE291E00E94B0030E94C50301500E
:1004C000110921F62196CA30D1050CF495CF9FEF82
:1004D000C91AD90AD0E0C0E08FCF29986623A9F0C5
:1004E0002B9A27E030E090E0AC01022E02C0559537
:1004F00047950A94E2F740FF0AC02C9A2D9A2D984E
:100500002150310988F7299A08952B98EACF2C9821
:10051000F5CF60E00C946D02CF93DF93219A229A7D
:10052000239A249A259A2A9A299A8FE39CE901977B
:10053000F1F700C000002A989FEF2AE683E091506F
:1005400020408040E1F700C000002A9A299881E20B
:100550000E94890283E10E94890286E00E9489024A
:1005600082EC0E94890280E20E94890289E00E9456
:10057000890280E80E94890280E40E948902C8EF13
:10058000D1E061E080E00E946D022197D1F788E020
:100590000E9489028CE0DF91CF910C94890280E85F
:1005A0000E94890280E40E9489021092370310920F
:1005B0003803EFE3F1E088EF91E0DF019C011D9249
:1005C00021503040E1F70895811103C084E20C947A
:1005D000890280E2FCCF962F969596959695E82F06
:1005E000F0E084E5989FE00DF11D1124E15CFE4FE1
:1005F0002081677081E090E001C0880F6A95EAF77A
:10060000442319F0822B8083089580958223FBCFA9
:100610008F929F92AF92BF92DF92EF92FF920F93D1
:100620001F93CF93DF9300D000D00F92CDB7DEB7EA
:10063000F62E282F082E000C330B80320CF450C0FD
:100640002052310985E0829FB001839F700D1124F3
:1006500068597F4F45E050E0CE0101960E94180492
:100660008E010F5F1F4F85E0F89E5001112497E027
:10067000F99E40011124E12CEA141B040CF464C01F
:10068000809137038F5F9F2D990F990F9F0D890FD1
:1006900080933703843558F08091380310923703E4
:1006A0008F5F97E0F99E800D11248093380380912D
:1006B0003803803320F010923703109238030F90E4
:1006C0000F900F900F900F90DF91CF911F910F918E
:1006D000FF90EF90DF90BF90AF909F908F90089524
:1006E000220F331FF901E75CFC4F008111810115D6
:1006F000110509F0B8CF45E050E068E670E0ACCFF6
:10070000ED0D5E0D8E2D6F2D0E940C04D801A80FEB
:10071000B11D2C9130E08D2D0E940C0402C0359546
:1007200027958A95E2F741E020FF40E06E2F852F64
:100730000E94EB02D394E091380350913703D81410
:100740001904F4F2E39498CFD12CF5CFE82F80323E
:1007500034F4EE0FFF0BE75CFC4F71836083089568
:100760001F93CF93DF93162FEC018991811104C061
:10077000DF91CF911F910895612F0E940803F5CF5B
:1007800080933703609338030895CF93DF9380E815
:100790000E94890280E40E948902CFE3D1E061E0F7
:1007A00089910E946D0283E0C733D807C1F7DF91BA
:1007B000CF910895209826980E948C020E94CF0223
:1007C0006AE071E081E00E94A60365E071E082E0EA
:1007D0000E94A60360E071E083E00E94A6036AE342
:1007E00071E084E00E94A60368E084E10E94C003F7
:1007F00062E085E391E00E94B00360E280E00E9445
:10080000C00361E089E191E00E94B0030E94C5034A
:100810001E9BFECF0E94E001991B79E004C0991F46
:10082000961708F0961B881F7A95C9F7809508954A
:10083000FB01DC0102C005900D9241505040D8F7F9
:060840000895F894FFCFBB
:100846000028F8280000FCFA2E0E010101010047DD
:10085600414D45204F564552005052455353205462
:100866004F205354415254000300040002005343E6
:0A0876004F52453A0044494E4F002E
:04000003000003C036
:00000001FF
